{
    "contractName": "DonatETH",
    "abi": [
        {
            "constant": true,
            "inputs": [
                {
                    "name": "_appointmentId",
                    "type": "uint256"
                }
            ],
            "name": "getAppointment",
            "outputs": [
                {
                    "name": "",
                    "type": "uint256"
                },
                {
                    "name": "",
                    "type": "uint8"
                },
                {
                    "name": "",
                    "type": "uint256"
                },
                {
                    "name": "",
                    "type": "uint256"
                },
                {
                    "name": "",
                    "type": "uint256"
                },
                {
                    "name": "",
                    "type": "string"
                },
                {
                    "name": "",
                    "type": "string"
                },
                {
                    "name": "",
                    "type": "string"
                },
                {
                    "name": "",
                    "type": "string"
                }
            ],
            "payable": false,
            "stateMutability": "view",
            "type": "function"
        },
        {
            "constant": false,
            "inputs": [
                {
                    "name": "_storeId",
                    "type": "uint256"
                },
                {
                    "name": "_itemId",
                    "type": "uint256"
                },
                {
                    "name": "_qty",
                    "type": "uint256"
                },
                {
                    "name": "_price",
                    "type": "uint256"
                },
                {
                    "name": "_paid",
                    "type": "bool"
                },
                {
                    "name": "_physicalAddress",
                    "type": "string"
                },
                {
                    "name": "_coordinates",
                    "type": "string"
                },
                {
                    "name": "_initialDate",
                    "type": "string"
                }
            ],
            "name": "setOrder",
            "outputs": [
                {
                    "name": "status",
                    "type": "bool"
                }
            ],
            "payable": true,
            "stateMutability": "payable",
            "type": "function"
        },
        {
            "constant": false,
            "inputs": [
                {
                    "name": "_name",
                    "type": "string"
                },
                {
                    "name": "_description",
                    "type": "string"
                },
                {
                    "name": "_media",
                    "type": "string"
                }
            ],
            "name": "createStore",
            "outputs": [
                {
                    "name": "status",
                    "type": "bool"
                }
            ],
            "payable": false,
            "stateMutability": "nonpayable",
            "type": "function"
        },
        {
            "constant": false,
            "inputs": [
                {
                    "name": "_name",
                    "type": "string"
                },
                {
                    "name": "_email",
                    "type": "string"
                },
                {
                    "name": "_username",
                    "type": "string"
                },
                {
                    "name": "_userType",
                    "type": "uint8"
                }
            ],
            "name": "createUser",
            "outputs": [
                {
                    "name": "status",
                    "type": "bool"
                }
            ],
            "payable": false,
            "stateMutability": "nonpayable",
            "type": "function"
        },
        {
            "constant": true,
            "inputs": [
                {
                    "name": "",
                    "type": "address"
                },
                {
                    "name": "",
                    "type": "uint256"
                }
            ],
            "name": "ownerStores",
            "outputs": [
                {
                    "name": "name",
                    "type": "string"
                },
                {
                    "name": "storeId",
                    "type": "uint256"
                },
                {
                    "name": "manager",
                    "type": "address"
                },
                {
                    "name": "description",
                    "type": "string"
                },
                {
                    "name": "media",
                    "type": "string"
                },
                {
                    "name": "itemCount",
                    "type": "uint256"
                },
                {
                    "name": "isActive",
                    "type": "bool"
                },
                {
                    "name": "verificationStatus",
                    "type": "bool"
                }
            ],
            "payable": false,
            "stateMutability": "view",
            "type": "function"
        },
        {
            "constant": true,
            "inputs": [
                {
                    "name": "_userAddress",
                    "type": "address"
                }
            ],
            "name": "getUserAppointments",
            "outputs": [
                {
                    "name": "",
                    "type": "uint256[]"
                }
            ],
            "payable": false,
            "stateMutability": "view",
            "type": "function"
        },
        {
            "constant": true,
            "inputs": [
                {
                    "name": "_userAddress",
                    "type": "address"
                }
            ],
            "name": "getUserByAddress",
            "outputs": [
                {
                    "name": "",
                    "type": "string"
                },
                {
                    "name": "",
                    "type": "string"
                },
                {
                    "name": "",
                    "type": "string"
                },
                {
                    "name": "",
                    "type": "uint8"
                },
                {
                    "name": "",
                    "type": "uint256"
                },
                {
                    "name": "",
                    "type": "uint256"
                }
            ],
            "payable": false,
            "stateMutability": "view",
            "type": "function"
        },
        {
            "constant": false,
            "inputs": [
                {
                    "name": "_picker",
                    "type": "address"
                },
                {
                    "name": "_qty",
                    "type": "uint256"
                },
                {
                    "name": "_price",
                    "type": "uint256"
                },
                {
                    "name": "_paid",
                    "type": "bool"
                },
                {
                    "name": "_physicalAddress",
                    "type": "string"
                },
                {
                    "name": "_coordinates",
                    "type": "string"
                },
                {
                    "name": "_initialDate",
                    "type": "string"
                }
            ],
            "name": "setAppointment",
            "outputs": [
                {
                    "name": "status",
                    "type": "bool"
                }
            ],
            "payable": true,
            "stateMutability": "payable",
            "type": "function"
        },
        {
            "constant": false,
            "inputs": [
                {
                    "name": "_name",
                    "type": "string"
                },
                {
                    "name": "_media",
                    "type": "string"
                },
                {
                    "name": "_price",
                    "type": "uint256"
                },
                {
                    "name": "_storeId",
                    "type": "uint256"
                }
            ],
            "name": "createItem",
            "outputs": [
                {
                    "name": "status",
                    "type": "bool"
                }
            ],
            "payable": false,
            "stateMutability": "nonpayable",
            "type": "function"
        },
        {
            "constant": false,
            "inputs": [
                {
                    "name": "docsLink",
                    "type": "string[]"
                },
                {
                    "name": "_storeId",
                    "type": "uint256"
                }
            ],
            "name": "uploadDocs",
            "outputs": [
                {
                    "name": "status",
                    "type": "bool"
                }
            ],
            "payable": false,
            "stateMutability": "nonpayable",
            "type": "function"
        },
        {
            "constant": false,
            "inputs": [
                {
                    "name": "_storeId",
                    "type": "uint256"
                }
            ],
            "name": "approveDocs",
            "outputs": [
                {
                    "name": "status",
                    "type": "bool"
                }
            ],
            "payable": false,
            "stateMutability": "nonpayable",
            "type": "function"
        },
        {
            "constant": true,
            "inputs": [
                {
                    "name": "_storeId",
                    "type": "uint256"
                }
            ],
            "name": "getStore",
            "outputs": [
                {
                    "name": "name",
                    "type": "string"
                },
                {
                    "name": "count",
                    "type": "uint256"
                },
                {
                    "name": "description",
                    "type": "string"
                },
                {
                    "name": "media",
                    "type": "string"
                }
            ],
            "payable": false,
            "stateMutability": "view",
            "type": "function"
        },
        {
            "constant": true,
            "inputs": [],
            "name": "owner",
            "outputs": [
                {
                    "name": "",
                    "type": "address"
                }
            ],
            "payable": false,
            "stateMutability": "view",
            "type": "function"
        },
        {
            "constant": true,
            "inputs": [
                {
                    "name": "_itemId",
                    "type": "uint256"
                },
                {
                    "name": "_storeId",
                    "type": "uint256"
                }
            ],
            "name": "getStoreItem",
            "outputs": [
                {
                    "name": "",
                    "type": "string"
                },
                {
                    "name": "",
                    "type": "uint256"
                },
                {
                    "name": "",
                    "type": "string"
                }
            ],
            "payable": false,
            "stateMutability": "view",
            "type": "function"
        },
        {
            "constant": true,
            "inputs": [
                {
                    "name": "_orderId",
                    "type": "uint256"
                }
            ],
            "name": "getOrder",
            "outputs": [
                {
                    "name": "",
                    "type": "uint256"
                },
                {
                    "name": "",
                    "type": "uint256"
                },
                {
                    "name": "",
                    "type": "uint8"
                },
                {
                    "name": "",
                    "type": "uint256"
                },
                {
                    "name": "",
                    "type": "uint256"
                },
                {
                    "name": "",
                    "type": "uint256"
                },
                {
                    "name": "",
                    "type": "string"
                },
                {
                    "name": "",
                    "type": "string"
                },
                {
                    "name": "",
                    "type": "string"
                },
                {
                    "name": "",
                    "type": "string"
                }
            ],
            "payable": false,
            "stateMutability": "view",
            "type": "function"
        },
        {
            "constant": true,
            "inputs": [
                {
                    "name": "",
                    "type": "uint256"
                }
            ],
            "name": "stores",
            "outputs": [
                {
                    "name": "name",
                    "type": "string"
                },
                {
                    "name": "storeId",
                    "type": "uint256"
                },
                {
                    "name": "manager",
                    "type": "address"
                },
                {
                    "name": "description",
                    "type": "string"
                },
                {
                    "name": "media",
                    "type": "string"
                },
                {
                    "name": "itemCount",
                    "type": "uint256"
                },
                {
                    "name": "isActive",
                    "type": "bool"
                },
                {
                    "name": "verificationStatus",
                    "type": "bool"
                }
            ],
            "payable": false,
            "stateMutability": "view",
            "type": "function"
        },
        {
            "inputs": [],
            "payable": false,
            "stateMutability": "nonpayable",
            "type": "constructor"
        },
        {
            "anonymous": false,
            "inputs": [
                {
                    "indexed": false,
                    "name": "uid",
                    "type": "uint256"
                }
            ],
            "name": "userCreated",
            "type": "event"
        },
        {
            "anonymous": false,
            "inputs": [
                {
                    "indexed": false,
                    "name": "_storeId",
                    "type": "uint256"
                }
            ],
            "name": "storeCreated",
            "type": "event"
        },
        {
            "anonymous": false,
            "inputs": [
                {
                    "indexed": false,
                    "name": "_storeId",
                    "type": "uint256"
                },
                {
                    "indexed": false,
                    "name": "name",
                    "type": "string"
                }
            ],
            "name": "itemCreated",
            "type": "event"
        },
        {
            "anonymous": false,
            "inputs": [
                {
                    "indexed": false,
                    "name": "appointmentId",
                    "type": "uint256"
                },
                {
                    "indexed": false,
                    "name": "status",
                    "type": "uint8"
                }
            ],
            "name": "appointmentEvent",
            "type": "event"
        },
        {
            "anonymous": false,
            "inputs": [
                {
                    "indexed": false,
                    "name": "orderId",
                    "type": "uint256"
                },
                {
                    "indexed": false,
                    "name": "",
                    "type": "uint8"
                }
            ],
            "name": "orderEvent",
            "type": "event"
        },
        {
            "anonymous": false,
            "inputs": [
                {
                    "indexed": false,
                    "name": "storeId",
                    "type": "uint256"
                },
                {
                    "indexed": false,
                    "name": "status",
                    "type": "bool"
                }
            ],
            "name": "docsVerification",
            "type": "event"
        }
    ],
    "bytecode": "6080604052600080556000600155600060025560006003556000600455600060055534801561002d57600080fd5b50600680546001600160a01b0319163317905561428c8061004f6000396000f3fe6080604052600436106100f35760003560e01c80636fc36b381161008a5780638da5cb5b116100595780638da5cb5b146102cc578063bedce200146102ee578063d09ef2411461031d578063e8a59cd814610353576100f3565b80636fc36b381461023c5780637c0f41051461025c578063816d78b41461027c578063834031201461029c576100f3565b806351732a4e116100c657806351732a4e1461019657806352678d6c146101ca57806369c212f6146101f75780636f7bcb2a14610229576100f3565b80630d943da2146100f85780631b3c350014610136578063306368d214610156578063382e5ac714610176575b600080fd5b34801561010457600080fd5b50610118610113366004613ae6565b610373565b60405161012d99989796959493929190613f6a565b60405180910390f35b610149610144366004613b23565b610b07565b60405161012d9190613d81565b34801561016257600080fd5b5061014961017136600461392e565b6111c3565b34801561018257600080fd5b506101496101913660046139bf565b61136e565b3480156101a257600080fd5b506101b66101b13660046137de565b6115c8565b60405161012d989796959493929190613e7c565b3480156101d657600080fd5b506101ea6101e53660046137b8565b6117c5565b60405161012d9190613d70565b34801561020357600080fd5b506102176102123660046137b8565b61186e565b60405161012d96959493929190613d8f565b610149610237366004613818565b611b15565b34801561024857600080fd5b50610149610257366004613a64565b612561565b34801561026857600080fd5b506101496102773660046138f9565b61263b565b34801561028857600080fd5b50610149610297366004613ae6565b61266b565b3480156102a857600080fd5b506102bc6102b7366004613ae6565b6126dc565b60405161012d9493929190613e2c565b3480156102d857600080fd5b506102e1612a67565b60405161012d9190613d62565b3480156102fa57600080fd5b5061030e610309366004613b04565b612a76565b60405161012d93929190613df1565b34801561032957600080fd5b5061033d610338366004613ae6565b612c12565b60405161012d9a99989796959493929190614046565b34801561035f57600080fd5b506101b661036e366004613ae6565b613300565b600080600080600060608060608061038961336c565b60008b8152600a602090815260409182902082516101608101909352805483526001810154909183019060ff1660028111156103c157fe5b60028111156103cc57fe5b8152604080516101208101825260028481018054835260038601805485516020601f60001961010060018616150201909316959095049182018590048502810185019096528086529583019593949193858401938301828280156104715780601f1061044657610100808354040283529160200191610471565b820191906000526020600020905b81548152906001019060200180831161045457829003601f168201915b50505091835250506002828101546001600160a01b031660208084019190915260038401805460408051601f600019600185161561010002019093169590950491820184900484028501840181528185529094019390918301828280156105195780601f106104ee57610100808354040283529160200191610519565b820191906000526020600020905b8154815290600101906020018083116104fc57829003601f168201915b505050918352505060048201805460408051602060026001851615610100026000190190941693909304601f81018490048402820184019092528181529382019392918301828280156105ad5780601f10610582576101008083540402835291602001916105ad565b820191906000526020600020905b81548152906001019060200180831161059057829003601f168201915b505050918352505060058201546020820152600682015460409091019060ff1660038111156105d857fe5b60038111156105e357fe5b81526008820154602080830191909152600a90920154604091820152918352815161012081018352600d850180548252600e860180548551601f60026000196101006001861615020190931692909204918201869004860281018601909652808652958401959294919385810193908301828280156106a35780601f10610678576101008083540402835291602001916106a3565b820191906000526020600020905b81548152906001019060200180831161068657829003601f168201915b50505091835250506002828101546001600160a01b031660208084019190915260038401805460408051601f6000196001851615610100020190931695909504918201849004840285018401815281855290940193909183018282801561074b5780601f106107205761010080835404028352916020019161074b565b820191906000526020600020905b81548152906001019060200180831161072e57829003601f168201915b505050918352505060048201805460408051602060026001851615610100026000190190941693909304601f81018490048402820184019092528181529382019392918301828280156107df5780601f106107b4576101008083540402835291602001916107df565b820191906000526020600020905b8154815290600101906020018083116107c257829003601f168201915b505050918352505060058201546020820152600682015460409091019060ff16600381111561080a57fe5b600381111561081557fe5b81526008820154602080830191909152600a90920154604091820152918352601884015483820152601984015460ff16151583830152601a8401546060840152601b840180548351601f6002600019600185161561010002019093169290920491820184900484028101840190945280845260809094019390918301828280156108e05780601f106108b5576101008083540402835291602001916108e0565b820191906000526020600020905b8154815290600101906020018083116108c357829003601f168201915b5050509183525050601c8201805460408051602060026001851615610100026000190190941693909304601f81018490048402820184019092528181529382019392918301828280156109745780601f1061094957610100808354040283529160200191610974565b820191906000526020600020905b81548152906001019060200180831161095757829003601f168201915b5050509183525050601d8201805460408051602060026001851615610100026000190190941693909304601f8101849004840282018401909252818152938201939291830182828015610a085780601f106109dd57610100808354040283529160200191610a08565b820191906000526020600020905b8154815290600101906020018083116109eb57829003601f168201915b5050509183525050601e8201805460408051602060026001851615610100026000190190941693909304601f8101849004840282018401909252818152938201939291830182828015610a9c5780601f10610a7157610100808354040283529160200191610a9c565b820191906000526020600020905b815481529060010190602001808311610a7f57829003601f168201915b50505050508152505090508060000151816020015182604001516000015183608001518460c001518560e00151866101000151876101200151886101400151839350829250819150809050995099509950995099509950995099509950509193959799909294969850565b6000610b116133d2565b604080516101808101825260048054600180820190925582526000602080840182905233825260088152908490208451610120810186528154815281840180548751600296821615610100026000190190911695909504601f81018590048502860185018852808652959687019591949293858101939290830182828015610bda5780601f10610baf57610100808354040283529160200191610bda565b820191906000526020600020905b815481529060010190602001808311610bbd57829003601f168201915b50505091835250506002828101546001600160a01b031660208084019190915260038401805460408051601f60001960018516156101000201909316959095049182018490048402850184018152818552909401939091830182828015610c825780601f10610c5757610100808354040283529160200191610c82565b820191906000526020600020905b815481529060010190602001808311610c6557829003601f168201915b505050918352505060048201805460408051602060026001851615610100026000190190941693909304601f8101849004840282018401909252818152938201939291830182828015610d165780601f10610ceb57610100808354040283529160200191610d16565b820191906000526020600020905b815481529060010190602001808311610cf957829003601f168201915b505050918352505060058201546020820152600682015460409091019060ff166003811115610d4157fe5b6003811115610d4c57fe5b815260200160088201548152602001600a82015481525050815260200189815260200187151581526020018881526020018681526020018581526020018481526020016040518060200160405280600081525081526020018b8152602001600960008d815260200190815260200160002060080160008c81526020019081526020016000206040518060a0016040529081600082018054600181600116156101000203166002900480601f016020809104026020016040519081016040528092919081815260200182805460018160011615610100020316600290048015610e755780601f10610e4a57610100808354040283529160200191610e75565b820191906000526020600020905b815481529060010190602001808311610e5857829003601f168201915b505050505081526020016001820154815260200160028201548152602001600382018054600181600116156101000203166002900480601f016020809104026020016040519081016040528092919081815260200182805460018160011615610100020316600290048015610f2b5780601f10610f0057610100808354040283529160200191610f2b565b820191906000526020600020905b815481529060010190602001808311610f0e57829003601f168201915b5050509183525050600491820154602091820152919092523360009081526008825260408082209354825260099093018252919091208251815590820151600180830180549495508594909160ff1990911690836003811115610f8a57fe5b021790555060408201518051600283019081556020808301518051610fb5926003870192019061343e565b5060408201516002820180546001600160a01b0319166001600160a01b0390921691909117905560608201518051610ff791600384019160209091019061343e565b506080820151805161101391600484019160209091019061343e565b5060a0820151600582015560c082015160068201805460ff1916600183600381111561103b57fe5b021790555060e0820151600882015561010090910151600a909101556060820151600d8201556080820151600e8201805460ff191691151591909117905560a0820151600f82015560c0820151805161109e91601084019160209091019061343e565b5060e082015180516110ba91601184019160209091019061343e565b5061010082015180516110d791601284019160209091019061343e565b5061012082015180516110f491601384019160209091019061343e565b50610140820151601482015561016082015180518051601584019161111e9183916020019061343e565b506020828101516001830155604083015160028301556060830151805161114b926003850192019061343e565b506080919091015160049182015533600090815260086020908152604091829020600a018054600101905591549185015190517fb776d757ba1bb173cd8ccd6d3ef1fe27bbddc83f8eb0a571c2b8a1e11fedba0e94506111ab935061400b565b60405180910390a15060019998505050505050505050565b60006111cd6134bc565b6040805161012081018252868152600180548082018255602083015233828401526060820187905260808201869052600060a0830181905260c08301528251818152808401909352909160e0830191816020015b60608152602001906001900390816112215750508152600060209182018190526001548152600982526040902082518051939450849391926112689284929091019061343e565b50602082810151600183015560408301516002830180546001600160a01b0319166001600160a01b03909216919091179055606083015180516112b1926003850192019061343e565b50608082015180516112cd91600484019160209091019061343e565b5060a0820151600582015560c082015160068201805460ff191691151591909117905560e0820151805161130b916007840191602090910190613515565b5061010091909101516009909101805460ff19169115159190911790556001546040517f0259be9ebac1fc7d995cb6ff3227705bd5c4742b987ee9cd60781cf579fa98b69161135991613f26565b60405180910390a160019150505b9392505050565b600061137861356e565b604051806101200160405280600080815480929190600101919050558152602001878152602001336001600160a01b03168152602001868152602001858152602001600081526020018460038111156113cd57fe5b81526000602080830182905260409283018290528154825260078152919020825181558282015180519394508493919261140f9260018501929091019061343e565b5060408201516002820180546001600160a01b0319166001600160a01b039092169190911790556060820151805161145191600384019160209091019061343e565b506080820151805161146d91600484019160209091019061343e565b5060a0820151600582015560c082015160068201805460ff1916600183600381111561149557fe5b021790555060e082015160088083019190915561010090920151600a909101553360009081526020918252604090208251815581830151805184936114e192600185019291019061343e565b5060408201516002820180546001600160a01b0319166001600160a01b039092169190911790556060820151805161152391600384019160209091019061343e565b506080820151805161153f91600484019160209091019061343e565b5060a0820151600582015560c082015160068201805460ff1916600183600381111561156757fe5b021790555060e0820151600882015561010090910151600a909101556000546040517f1ed675bb725b3a8b0434b9ee956fe05e4c0e79f9dc67c3f1a717a5bb1fd88fd3916115b491613f26565b60405180910390a150600195945050505050565b600c60209081526000928352604080842082529183529181902080548251601f6002600019610100600186161502019093169290920491820185900485028101850190935280835290928391908301828280156116665780601f1061163b57610100808354040283529160200191611666565b820191906000526020600020905b81548152906001019060200180831161164957829003601f168201915b505050600180850154600280870154600388018054604080516020601f600019998516156101000299909901909316959095049687018290048202850182019052858452979893976001600160a01b0390921696509294509092908301828280156117125780601f106116e757610100808354040283529160200191611712565b820191906000526020600020905b8154815290600101906020018083116116f557829003601f168201915b5050505060048301805460408051602060026001851615610100026000190190941693909304601f81018490048402820184019092528181529495949350908301828280156117a25780601f10611777576101008083540402835291602001916117a2565b820191906000526020600020905b81548152906001019060200180831161178557829003601f168201915b50505050600583015460068401546009909401549293909260ff91821692501688565b6060600060086000846001600160a01b03166001600160a01b03168152602001908152602001600020905060608160080154604051908082528060200260200182016040528015611820578160200160208202803883390190505b50905060005b8260080154811015611864576000818152600784016020526040902054825183908390811061185157fe5b6020908102919091010152600101611826565b509150505b919050565b6060806060600080600061188061356e565b60086000896001600160a01b03166001600160a01b031681526020019081526020016000206040518061012001604052908160008201548152602001600182018054600181600116156101000203166002900480601f0160208091040260200160405190810160405280929190818152602001828054600181600116156101000203166002900480156119545780601f1061192957610100808354040283529160200191611954565b820191906000526020600020905b81548152906001019060200180831161193757829003601f168201915b50505091835250506002828101546001600160a01b031660208084019190915260038401805460408051601f600019600185161561010002019093169590950491820184900484028501840181528185529094019390918301828280156119fc5780601f106119d1576101008083540402835291602001916119fc565b820191906000526020600020905b8154815290600101906020018083116119df57829003601f168201915b505050918352505060048201805460408051602060026001851615610100026000190190941693909304601f8101849004840282018401909252818152938201939291830182828015611a905780601f10611a6557610100808354040283529160200191611a90565b820191906000526020600020905b815481529060010190602001808311611a7357829003601f168201915b505050918352505060058201546020820152600682015460409091019060ff166003811115611abb57fe5b6003811115611ac657fe5b81526008820154602080830191909152600a909201546040909101528101516060820151608083015160c084015160e085015161010090950151939d929c50909a509850919650945092505050565b6000611b1f61336c565b604080516101608101825260038054600180820190925582526000602080840182905233825260088152908490208451610120810186528154815281840180548751600296821615610100026000190190911695909504601f81018590048502860185018852808652959687019591949293858101939290830182828015611be85780601f10611bbd57610100808354040283529160200191611be8565b820191906000526020600020905b815481529060010190602001808311611bcb57829003601f168201915b50505091835250506002828101546001600160a01b031660208084019190915260038401805460408051601f60001960018516156101000201909316959095049182018490048402850184018152818552909401939091830182828015611c905780601f10611c6557610100808354040283529160200191611c90565b820191906000526020600020905b815481529060010190602001808311611c7357829003601f168201915b505050918352505060048201805460408051602060026001851615610100026000190190941693909304601f8101849004840282018401909252818152938201939291830182828015611d245780601f10611cf957610100808354040283529160200191611d24565b820191906000526020600020905b815481529060010190602001808311611d0757829003601f168201915b505050918352505060058201546020820152600682015460409091019060ff166003811115611d4f57fe5b6003811115611d5a57fe5b815260200160088201548152602001600a820154815250508152602001600860008c6001600160a01b03166001600160a01b031681526020019081526020016000206040518061012001604052908160008201548152602001600182018054600181600116156101000203166002900480601f016020809104026020016040519081016040528092919081815260200182805460018160011615610100020316600290048015611e4b5780601f10611e2057610100808354040283529160200191611e4b565b820191906000526020600020905b815481529060010190602001808311611e2e57829003601f168201915b50505091835250506002828101546001600160a01b031660208084019190915260038401805460408051601f60001960018516156101000201909316959095049182018490048402850184018152818552909401939091830182828015611ef35780601f10611ec857610100808354040283529160200191611ef3565b820191906000526020600020905b815481529060010190602001808311611ed657829003601f168201915b505050918352505060048201805460408051602060026001851615610100026000190190941693909304601f8101849004840282018401909252818152938201939291830182828015611f875780601f10611f5c57610100808354040283529160200191611f87565b820191906000526020600020905b815481529060010190602001808311611f6a57829003601f168201915b505050918352505060058201546020820152600682015460409091019060ff166003811115611fb257fe5b6003811115611fbd57fe5b8152600882810154602080840191909152600a909301546040928301529284528382018d90528a151584820152606084018c9052608084018a905260a0840189905260c0840188905280518083018252600080825260e090950152338452828252808420928301805460018082019092558552600790930182529092208351815591830151828201805494955085949192909160ff19169083600281111561206157fe5b02179055506040820151805160028301908155602080830151805161208c926003870192019061343e565b5060408201516002820180546001600160a01b0319166001600160a01b03909216919091179055606082015180516120ce91600384019160209091019061343e565b50608082015180516120ea91600484019160209091019061343e565b5060a0820151600582015560c082015160068201805460ff1916600183600381111561211257fe5b021790555060e0820151600882015561010090910151600a9091015560608201518051600d8301908155602080830151805161215492600e870192019061343e565b5060408201516002820180546001600160a01b0319166001600160a01b039092169190911790556060820151805161219691600384019160209091019061343e565b50608082015180516121b291600484019160209091019061343e565b5060a0820151600582015560c082015160068201805460ff191660018360038111156121da57fe5b021790555060e082810151600883015561010090920151600a909101556080830151601883015560a083015160198301805460ff191691151591909117905560c0830151601a830155820151805161223c91601b84019160209091019061343e565b50610100820151805161225991601c84019160209091019061343e565b50610120820151805161227691601d84019160209091019061343e565b50610140820151805161229391601e84019160209091019061343e565b50506003805460018082019092556000908152600a602090815260409091208451815590840151818301805486955092939192909160ff19909116908360028111156122db57fe5b021790555060408201518051600283019081556020808301518051612306926003870192019061343e565b5060408201516002820180546001600160a01b0319166001600160a01b039092169190911790556060820151805161234891600384019160209091019061343e565b506080820151805161236491600484019160209091019061343e565b5060a0820151600582015560c082015160068201805460ff1916600183600381111561238c57fe5b021790555060e0820151600882015561010090910151600a9091015560608201518051600d830190815560208083015180516123ce92600e870192019061343e565b5060408201516002820180546001600160a01b0319166001600160a01b039092169190911790556060820151805161241091600384019160209091019061343e565b506080820151805161242c91600484019160209091019061343e565b5060a0820151600582015560c082015160068201805460ff1916600183600381111561245457fe5b021790555060e082810151600883015561010090920151600a909101556080830151601883015560a083015160198301805460ff191691151591909117905560c0830151601a83015582015180516124b691601b84019160209091019061343e565b5061010082015180516124d391601c84019160209091019061343e565b5061012082015180516124f091601d84019160209091019061343e565b50610140820151805161250d91601e84019160209091019061343e565b509050507fa1074acade05463b30dd84ab9f12d68da78a1307849e683c8a8a1d94678ccf446003548260200151604051612548929190613f4f565b60405180910390a160019150505b979650505050505050565b600061256b6135ce565b506040805160a081018252868152602080820186905281830185905260608201879052600280546001810190915560808301526000858152600982528381206005810154825260080182529290922081518051929384936125cf928492019061343e565b50602082810151600183015560408301516002830155606083015180516125fc926003850192019061343e565b50608082015181600401559050507f41b410cfb76df3f4f2ace6dfb269ed1c899d31b9c09c1e2a85e674d5d42191ee83876040516115b4929190614026565b60008181526009602090815260408220845161265f926007909201918601906135fd565b50600190505b92915050565b60008181526009602081905260408083209182018054600160ff199182168117909255600690930180549093168117909255517f930ea9c4d3035c7eb4c91443acf49eef4f3bc655ee6c8a0c8f88f73145367a28916126cc91859190613f34565b60405180910390a1506001919050565b606060006060806126eb6134bc565b6000868152600960209081526040918290208251815460026001821615610100026000190190911604601f81018490049093028101610140908101909452610120810183815290939192849284919084018282801561278b5780601f106127605761010080835404028352916020019161278b565b820191906000526020600020905b81548152906001019060200180831161276e57829003601f168201915b50505091835250506001828101546020808401919091526002808501546001600160a01b031660408086019190915260038601805482516101009682161596909602600019011692909204601f810184900484028501840190915280845260609094019390918301828280156128425780601f1061281757610100808354040283529160200191612842565b820191906000526020600020905b81548152906001019060200180831161282557829003601f168201915b505050918352505060048201805460408051602060026001851615610100026000190190941693909304601f81018490048402820184019092528181529382019392918301828280156128d65780601f106128ab576101008083540402835291602001916128d6565b820191906000526020600020905b8154815290600101906020018083116128b957829003601f168201915b50505050508152602001600582015481526020016006820160009054906101000a900460ff1615151515815260200160078201805480602002602001604051908101604052809291908181526020016000905b828210156129d45760008481526020908190208301805460408051601f60026000196101006001871615020190941693909304928301859004850281018501909152818152928301828280156129c05780601f10612995576101008083540402835291602001916129c0565b820191906000526020600020905b8154815290600101906020018083116129a357829003601f168201915b505050505081526020019060010190612929565b505050908252506009919091015460ff16151560209091015260c08101519091501515600114612a1f5760405162461bcd60e51b8152600401612a1690613f06565b60405180910390fd5b6101008101511515600114612a465760405162461bcd60e51b8152600401612a1690613f16565b805160a0820151606083015160809093015191989097509195509350915050565b6006546001600160a01b031681565b606060006060612a846135ce565b60008581526009602090815260408083208984526008018252918290208251815460026001821615610100026000190190911604601f8101849004909302810160c090810190945260a08101838152909391928492849190840182828015612b2d5780601f10612b0257610100808354040283529160200191612b2d565b820191906000526020600020905b815481529060010190602001808311612b1057829003601f168201915b505050505081526020016001820154815260200160028201548152602001600382018054600181600116156101000203166002900480601f016020809104026020016040519081016040528092919081815260200182805460018160011615610100020316600290048015612be35780601f10612bb857610100808354040283529160200191612be3565b820191906000526020600020905b815481529060010190602001808311612bc657829003601f168201915b505050918352505060049190910154602091820152815190820151606090920151909891975095509350505050565b600080600080600080606080606080612c296133d2565b60008c8152600b602090815260409182902082516101808101909352805483526001810154909183019060ff166003811115612c6157fe5b6003811115612c6c57fe5b8152604080516101208101825260028481018054835260038601805485516020601f6000196101006001861615020190931695909504918201859004850281018501909652808652958301959394919385840193830182828015612d115780601f10612ce657610100808354040283529160200191612d11565b820191906000526020600020905b815481529060010190602001808311612cf457829003601f168201915b50505091835250506002828101546001600160a01b031660208084019190915260038401805460408051601f60001960018516156101000201909316959095049182018490048402850184018152818552909401939091830182828015612db95780601f10612d8e57610100808354040283529160200191612db9565b820191906000526020600020905b815481529060010190602001808311612d9c57829003601f168201915b505050918352505060048201805460408051602060026001851615610100026000190190941693909304601f8101849004840282018401909252818152938201939291830182828015612e4d5780601f10612e2257610100808354040283529160200191612e4d565b820191906000526020600020905b815481529060010190602001808311612e3057829003601f168201915b505050918352505060058201546020820152600682015460409091019060ff166003811115612e7857fe5b6003811115612e8357fe5b81526008820154602080830191909152600a90920154604091820152918352600d84015483820152600e84015460ff16151583830152600f84015460608401526010840180548351601f600260001960018516156101000201909316929092049182018490048402810184019094528084526080909401939091830182828015612f4e5780601f10612f2357610100808354040283529160200191612f4e565b820191906000526020600020905b815481529060010190602001808311612f3157829003601f168201915b505050918352505060118201805460408051602060026001851615610100026000190190941693909304601f8101849004840282018401909252818152938201939291830182828015612fe25780601f10612fb757610100808354040283529160200191612fe2565b820191906000526020600020905b815481529060010190602001808311612fc557829003601f168201915b505050918352505060128201805460408051602060026001851615610100026000190190941693909304601f81018490048402820184019092528181529382019392918301828280156130765780601f1061304b57610100808354040283529160200191613076565b820191906000526020600020905b81548152906001019060200180831161305957829003601f168201915b505050918352505060138201805460408051602060026001851615610100026000190190941693909304601f810184900484028201840190925281815293820193929183018282801561310a5780601f106130df5761010080835404028352916020019161310a565b820191906000526020600020905b8154815290600101906020018083116130ed57829003601f168201915b5050505050815260200160148201548152602001601582016040518060a0016040529081600082018054600181600116156101000203166002900480601f0160208091040260200160405190810160405280929190818152602001828054600181600116156101000203166002900480156131c65780601f1061319b576101008083540402835291602001916131c6565b820191906000526020600020905b8154815290600101906020018083116131a957829003601f168201915b505050505081526020016001820154815260200160028201548152602001600382018054600181600116156101000203166002900480601f01602080910402602001604051908101604052809291908181526020018280546001816001161561010002031660029004801561327c5780601f106132515761010080835404028352916020019161327c565b820191906000526020600020905b81548152906001019060200180831161325f57829003601f168201915b50505050508152602001600482015481525050815250509050806101600151608001518160000151826020015183604001516000015184606001518560a001518660c001518760e001518861010001518961012001518393508292508191508090509a509a509a509a509a509a509a509a509a509a50509193959799509193959799565b60096020908152600091825260409182902080548351601f600260001961010060018616150201909316929092049182018490048402810184019094528084529092918391908301828280156116665780601f1061163b57610100808354040283529160200191611666565b60408051610360810182526000808252602082015290810161338c61356e565b815260200161339961356e565b81526020016000815260200160001515815260200160008152602001606081526020016060815260200160608152602001606081525090565b6040805161030081018252600080825260208201529081016133f261356e565b8152602001600081526020016000151581526020016000815260200160608152602001606081526020016060815260200160608152602001600081526020016134396135ce565b905290565b828054600181600116156101000203166002900490600052602060002090601f016020900481019282601f1061347f57805160ff19168380011785556134ac565b828001600101855582156134ac579182015b828111156134ac578251825591602001919060010190613491565b506134b892915061364a565b5090565b604051806101200160405280606081526020016000815260200160006001600160a01b03168152602001606081526020016060815260200160008152602001600015158152602001606081526020016000151581525090565b828054828255906000526020600020908101928215613562579160200282015b82811115613562578251805161355291849160209091019061343e565b5091602001919060010190613535565b506134b8929150613667565b604051806101200160405280600081526020016060815260200160006001600160a01b03168152602001606081526020016060815260200160008152602001600060038111156135ba57fe5b815260200160008152602001600081525090565b6040518060a0016040528060608152602001600081526020016000815260200160608152602001600081525090565b828054828255906000526020600020908101928215613562579160200282015b82811115613562578251805161363a91849160209091019061343e565b509160200191906001019061361d565b61366491905b808211156134b85760008155600101613650565b90565b61366491905b808211156134b8576000613681828261368a565b5060010161366d565b50805460018160011615610100020316600290046000825580601f106136b057506136ce565b601f0160209004906000526020600020908101906136ce919061364a565b50565b803561266581614216565b600082601f8301126136ed57600080fd5b81356137006136fb8261411c565b6140f6565b81815260209384019390925082018360005b8381101561373e5781358601613728888261375e565b8452506020928301929190910190600101613712565b5050505092915050565b80356126658161422a565b803561266581614233565b600082601f83011261376f57600080fd5b813561377d6136fb8261413c565b9150808252602083016020830185838301111561379957600080fd5b6137a48382846141bc565b50505092915050565b803561266581614240565b6000602082840312156137ca57600080fd5b60006137d684846136d1565b949350505050565b600080604083850312156137f157600080fd5b60006137fd85856136d1565b925050602061380e858286016137ad565b9150509250929050565b600080600080600080600060e0888a03121561383357600080fd5b600061383f8a8a6136d1565b97505060206138508a828b016137ad565b96505060406138618a828b016137ad565b95505060606138728a828b01613748565b94505060808801356001600160401b0381111561388e57600080fd5b61389a8a828b0161375e565b93505060a08801356001600160401b038111156138b657600080fd5b6138c28a828b0161375e565b92505060c08801356001600160401b038111156138de57600080fd5b6138ea8a828b0161375e565b91505092959891949750929550565b6000806040838503121561390c57600080fd5b82356001600160401b0381111561392257600080fd5b6137fd858286016136dc565b60008060006060848603121561394357600080fd5b83356001600160401b0381111561395957600080fd5b6139658682870161375e565b93505060208401356001600160401b0381111561398157600080fd5b61398d8682870161375e565b92505060408401356001600160401b038111156139a957600080fd5b6139b58682870161375e565b9150509250925092565b600080600080608085870312156139d557600080fd5b84356001600160401b038111156139eb57600080fd5b6139f78782880161375e565b94505060208501356001600160401b03811115613a1357600080fd5b613a1f8782880161375e565b93505060408501356001600160401b03811115613a3b57600080fd5b613a478782880161375e565b9250506060613a5887828801613753565b91505092959194509250565b60008060008060808587031215613a7a57600080fd5b84356001600160401b03811115613a9057600080fd5b613a9c8782880161375e565b94505060208501356001600160401b03811115613ab857600080fd5b613ac48782880161375e565b9350506040613ad5878288016137ad565b9250506060613a58878288016137ad565b600060208284031215613af857600080fd5b60006137d684846137ad565b60008060408385031215613b1757600080fd5b60006137fd85856137ad565b600080600080600080600080610100898b031215613b4057600080fd5b6000613b4c8b8b6137ad565b9850506020613b5d8b828c016137ad565b9750506040613b6e8b828c016137ad565b9650506060613b7f8b828c016137ad565b9550506080613b908b828c01613748565b94505060a08901356001600160401b03811115613bac57600080fd5b613bb88b828c0161375e565b93505060c08901356001600160401b03811115613bd457600080fd5b613be08b828c0161375e565b92505060e08901356001600160401b03811115613bfc57600080fd5b613c088b828c0161375e565b9150509295985092959890939650565b6000613c248383613d59565b505060200190565b613c3581614176565b82525050565b6000613c4682614169565b613c50818561416d565b9350613c5b83614163565b8060005b83811015613c89578151613c738882613c18565b9750613c7e83614163565b925050600101613c5f565b509495945050505050565b613c3581614181565b613c35816141a6565b613c35816141b1565b6000613cba82614169565b613cc4818561416d565b9350613cd48185602086016141c8565b613cdd816141f8565b9093019392505050565b6000613cf460188361416d565b7f53746f7265206973206e6f742079657420616374697665210000000000000000815260200192915050565b6000613d2d601a8361416d565b7f53746f7265206973206e6f742079657420766572696669656421000000000000815260200192915050565b613c3581613664565b602081016126658284613c2c565b602080825281016113678184613c3b565b602081016126658284613c94565b60c08082528101613da08189613caf565b90508181036020830152613db48188613caf565b90508181036040830152613dc88187613caf565b9050613dd76060830186613ca6565b613de46080830185613d59565b61255660a0830184613d59565b60608082528101613e028186613caf565b9050613e116020830185613d59565b8181036040830152613e238184613caf565b95945050505050565b60808082528101613e3d8187613caf565b9050613e4c6020830186613d59565b8181036040830152613e5e8185613caf565b90508181036060830152613e728184613caf565b9695505050505050565b6101008082528101613e8e818b613caf565b9050613e9d602083018a613d59565b613eaa6040830189613c2c565b8181036060830152613ebc8188613caf565b90508181036080830152613ed08187613caf565b9050613edf60a0830186613d59565b613eec60c0830185613c94565b613ef960e0830184613c94565b9998505050505050505050565b6020808252810161266581613ce7565b6020808252810161266581613d20565b602081016126658284613d59565b60408101613f428285613d59565b6113676020830184613c94565b60408101613f5d8285613d59565b6113676020830184613c9d565b6101208101613f79828c613d59565b613f86602083018b613c9d565b613f93604083018a613d59565b613fa06060830189613d59565b613fad6080830188613d59565b81810360a0830152613fbf8187613caf565b905081810360c0830152613fd38186613caf565b905081810360e0830152613fe78185613caf565b9050818103610100830152613ffc8184613caf565b9b9a5050505050505050505050565b604081016140198285613d59565b6113676020830184613ca6565b604081016140348285613d59565b81810360208301526137d68184613caf565b6101408101614055828d613d59565b614062602083018c613d59565b61406f604083018b613ca6565b61407c606083018a613d59565b6140896080830189613d59565b61409660a0830188613d59565b81810360c08301526140a88187613caf565b905081810360e08301526140bc8186613caf565b90508181036101008301526140d18185613caf565b90508181036101208301526140e68184613caf565b9c9b505050505050505050505050565b6040518181016001600160401b038111828210171561411457600080fd5b604052919050565b60006001600160401b0382111561413257600080fd5b5060209081020190565b60006001600160401b0382111561415257600080fd5b506020601f91909101601f19160190565b60200190565b5190565b90815260200190565b60006126658261419a565b151590565b8061186981614202565b806118698161420c565b6001600160a01b031690565b600061266582614186565b600061266582614190565b82818337506000910152565b60005b838110156141e35781810151838201526020016141cb565b838111156141f2576000848401525b50505050565b601f01601f191690565b600381106136ce57fe5b600481106136ce57fe5b61421f81614176565b81146136ce57600080fd5b61421f81614181565b600481106136ce57600080fd5b61421f8161366456fea365627a7a7230582089a2994cd0d4d66a66f6b284d3cd02821f2804e9eba919b43b5422065e1bbb2b6c6578706572696d656e74616cf564736f6c634300050a0040",
    "sourcePath": "/home/jiren/GitHub/DonatETH-drizzle/contracts/DonatETH.sol",
    "compiler": {
        "name": "solc",
        "version": "0.5.10+commit.5a6ea5b1"
    },
    "functionHashes": {
        "approveDocs(uint256)": "816d78b4",
        "createItem(string,string,uint256,uint256)": "6fc36b38",
        "createStore(string,string,string)": "306368d2",
        "createUser(string,string,string,uint8)": "382e5ac7",
        "getAppointment(uint256)": "0d943da2",
        "getOrder(uint256)": "d09ef241",
        "getStore(uint256)": "83403120",
        "getStoreItem(uint256,uint256)": "bedce200",
        "getUserAppointments(address)": "52678d6c",
        "getUserByAddress(address)": "69c212f6",
        "owner()": "8da5cb5b",
        "ownerStores(address,uint256)": "51732a4e",
        "setAppointment(address,uint256,uint256,bool,string,string,string)": "6f7bcb2a",
        "setOrder(uint256,uint256,uint256,uint256,bool,string,string,string)": "1b3c3500",
        "stores(uint256)": "e8a59cd8",
        "uploadDocs(string[],uint256)": "7c0f4105"
    },
    "gasEstimates": {
        "creation": {
            "codeDepositCost": "3407200",
            "executionCost": "54074",
            "totalCost": "3461274"
        },
        "external": {
            "approveDocs(uint256)": "infinite",
            "createItem(string,string,uint256,uint256)": "infinite",
            "createStore(string,string,string)": "infinite",
            "createUser(string,string,string,uint8)": "infinite",
            "getAppointment(uint256)": "infinite",
            "getOrder(uint256)": "infinite",
            "getStore(uint256)": "infinite",
            "getStoreItem(uint256,uint256)": "infinite",
            "getUserAppointments(address)": "infinite",
            "getUserByAddress(address)": "infinite",
            "owner()": "infinite",
            "ownerStores(address,uint256)": "infinite",
            "setAppointment(address,uint256,uint256,bool,string,string,string)": "infinite",
            "setOrder(uint256,uint256,uint256,uint256,bool,string,string,string)": "infinite",
            "stores(uint256)": "infinite",
            "uploadDocs(string[],uint256)": "infinite"
        }
    }
}